###############################################################################
#
# IAR ELF Linker V8.20.1.14183/W32 for ARM                25/May/2020  19:39:57
# Copyright 2007-2017 IAR Systems AB.
#
#    Output file  =  
#        C:\Projects\IARProj\mobiledatalogger\Projects\B-L072Z-LRWAN1\Applications\LoRa\PingPong\EWARM\mlm32l07x01\Exe\Lora.out
#    Map file     =  
#        C:\Projects\IARProj\mobiledatalogger\Projects\B-L072Z-LRWAN1\Applications\LoRa\PingPong\EWARM\mlm32l07x01\List\Lora.map
#    Command line =  
#        -f C:\Users\user\AppData\Local\Temp\EW2438.tmp
#        (C:\Projects\IARProj\mobiledatalogger\Projects\B-L072Z-LRWAN1\Applications\LoRa\PingPong\EWARM\mlm32l07x01\Obj\b-l072z-lrwan1.o
#        C:\Projects\IARProj\mobiledatalogger\Projects\B-L072Z-LRWAN1\Applications\LoRa\PingPong\EWARM\mlm32l07x01\Obj\debug.o
#        C:\Projects\IARProj\mobiledatalogger\Projects\B-L072Z-LRWAN1\Applications\LoRa\PingPong\EWARM\mlm32l07x01\Obj\flash.o
#        C:\Projects\IARProj\mobiledatalogger\Projects\B-L072Z-LRWAN1\Applications\LoRa\PingPong\EWARM\mlm32l07x01\Obj\hw_gpio.o
#        C:\Projects\IARProj\mobiledatalogger\Projects\B-L072Z-LRWAN1\Applications\LoRa\PingPong\EWARM\mlm32l07x01\Obj\hw_rtc.o
#        C:\Projects\IARProj\mobiledatalogger\Projects\B-L072Z-LRWAN1\Applications\LoRa\PingPong\EWARM\mlm32l07x01\Obj\hw_spi.o
#        C:\Projects\IARProj\mobiledatalogger\Projects\B-L072Z-LRWAN1\Applications\LoRa\PingPong\EWARM\mlm32l07x01\Obj\low_power_manager.o
#        C:\Projects\IARProj\mobiledatalogger\Projects\B-L072Z-LRWAN1\Applications\LoRa\PingPong\EWARM\mlm32l07x01\Obj\main.o
#        C:\Projects\IARProj\mobiledatalogger\Projects\B-L072Z-LRWAN1\Applications\LoRa\PingPong\EWARM\mlm32l07x01\Obj\mlm32l07x01.o
#        C:\Projects\IARProj\mobiledatalogger\Projects\B-L072Z-LRWAN1\Applications\LoRa\PingPong\EWARM\mlm32l07x01\Obj\mlm32l0xx_hal_msp.o
#        C:\Projects\IARProj\mobiledatalogger\Projects\B-L072Z-LRWAN1\Applications\LoRa\PingPong\EWARM\mlm32l07x01\Obj\mlm32l0xx_hw.o
#        C:\Projects\IARProj\mobiledatalogger\Projects\B-L072Z-LRWAN1\Applications\LoRa\PingPong\EWARM\mlm32l07x01\Obj\mlm32l0xx_it.o
#        C:\Projects\IARProj\mobiledatalogger\Projects\B-L072Z-LRWAN1\Applications\LoRa\PingPong\EWARM\mlm32l07x01\Obj\queue.o
#        C:\Projects\IARProj\mobiledatalogger\Projects\B-L072Z-LRWAN1\Applications\LoRa\PingPong\EWARM\mlm32l07x01\Obj\startup_stm32l072xx.o
#        C:\Projects\IARProj\mobiledatalogger\Projects\B-L072Z-LRWAN1\Applications\LoRa\PingPong\EWARM\mlm32l07x01\Obj\stm32l0xx_hal.o
#        C:\Projects\IARProj\mobiledatalogger\Projects\B-L072Z-LRWAN1\Applications\LoRa\PingPong\EWARM\mlm32l07x01\Obj\stm32l0xx_hal_adc.o
#        C:\Projects\IARProj\mobiledatalogger\Projects\B-L072Z-LRWAN1\Applications\LoRa\PingPong\EWARM\mlm32l07x01\Obj\stm32l0xx_hal_adc_ex.o
#        C:\Projects\IARProj\mobiledatalogger\Projects\B-L072Z-LRWAN1\Applications\LoRa\PingPong\EWARM\mlm32l07x01\Obj\stm32l0xx_hal_cortex.o
#        C:\Projects\IARProj\mobiledatalogger\Projects\B-L072Z-LRWAN1\Applications\LoRa\PingPong\EWARM\mlm32l07x01\Obj\stm32l0xx_hal_dma.o
#        C:\Projects\IARProj\mobiledatalogger\Projects\B-L072Z-LRWAN1\Applications\LoRa\PingPong\EWARM\mlm32l07x01\Obj\stm32l0xx_hal_flash.o
#        C:\Projects\IARProj\mobiledatalogger\Projects\B-L072Z-LRWAN1\Applications\LoRa\PingPong\EWARM\mlm32l07x01\Obj\stm32l0xx_hal_flash_ex.o
#        C:\Projects\IARProj\mobiledatalogger\Projects\B-L072Z-LRWAN1\Applications\LoRa\PingPong\EWARM\mlm32l07x01\Obj\stm32l0xx_hal_gpio.o
#        C:\Projects\IARProj\mobiledatalogger\Projects\B-L072Z-LRWAN1\Applications\LoRa\PingPong\EWARM\mlm32l07x01\Obj\stm32l0xx_hal_i2c.o
#        C:\Projects\IARProj\mobiledatalogger\Projects\B-L072Z-LRWAN1\Applications\LoRa\PingPong\EWARM\mlm32l07x01\Obj\stm32l0xx_hal_pwr.o
#        C:\Projects\IARProj\mobiledatalogger\Projects\B-L072Z-LRWAN1\Applications\LoRa\PingPong\EWARM\mlm32l07x01\Obj\stm32l0xx_hal_pwr_ex.o
#        C:\Projects\IARProj\mobiledatalogger\Projects\B-L072Z-LRWAN1\Applications\LoRa\PingPong\EWARM\mlm32l07x01\Obj\stm32l0xx_hal_rcc.o
#        C:\Projects\IARProj\mobiledatalogger\Projects\B-L072Z-LRWAN1\Applications\LoRa\PingPong\EWARM\mlm32l07x01\Obj\stm32l0xx_hal_rcc_ex.o
#        C:\Projects\IARProj\mobiledatalogger\Projects\B-L072Z-LRWAN1\Applications\LoRa\PingPong\EWARM\mlm32l07x01\Obj\stm32l0xx_hal_rtc.o
#        C:\Projects\IARProj\mobiledatalogger\Projects\B-L072Z-LRWAN1\Applications\LoRa\PingPong\EWARM\mlm32l07x01\Obj\stm32l0xx_hal_rtc_ex.o
#        C:\Projects\IARProj\mobiledatalogger\Projects\B-L072Z-LRWAN1\Applications\LoRa\PingPong\EWARM\mlm32l07x01\Obj\stm32l0xx_hal_spi.o
#        C:\Projects\IARProj\mobiledatalogger\Projects\B-L072Z-LRWAN1\Applications\LoRa\PingPong\EWARM\mlm32l07x01\Obj\stm32l0xx_hal_tim.o
#        C:\Projects\IARProj\mobiledatalogger\Projects\B-L072Z-LRWAN1\Applications\LoRa\PingPong\EWARM\mlm32l07x01\Obj\stm32l0xx_hal_tim_ex.o
#        C:\Projects\IARProj\mobiledatalogger\Projects\B-L072Z-LRWAN1\Applications\LoRa\PingPong\EWARM\mlm32l07x01\Obj\stm32l0xx_hal_uart.o
#        C:\Projects\IARProj\mobiledatalogger\Projects\B-L072Z-LRWAN1\Applications\LoRa\PingPong\EWARM\mlm32l07x01\Obj\stm32l0xx_hal_uart_ex.o
#        C:\Projects\IARProj\mobiledatalogger\Projects\B-L072Z-LRWAN1\Applications\LoRa\PingPong\EWARM\mlm32l07x01\Obj\sx1276.o
#        C:\Projects\IARProj\mobiledatalogger\Projects\B-L072Z-LRWAN1\Applications\LoRa\PingPong\EWARM\mlm32l07x01\Obj\system_stm32l0xx.o
#        C:\Projects\IARProj\mobiledatalogger\Projects\B-L072Z-LRWAN1\Applications\LoRa\PingPong\EWARM\mlm32l07x01\Obj\timeServer.o
#        C:\Projects\IARProj\mobiledatalogger\Projects\B-L072Z-LRWAN1\Applications\LoRa\PingPong\EWARM\mlm32l07x01\Obj\trace.o
#        C:\Projects\IARProj\mobiledatalogger\Projects\B-L072Z-LRWAN1\Applications\LoRa\PingPong\EWARM\mlm32l07x01\Obj\utilities.o
#        C:\Projects\IARProj\mobiledatalogger\Projects\B-L072Z-LRWAN1\Applications\LoRa\PingPong\EWARM\mlm32l07x01\Obj\vcom.o
#        -o
#        C:\Projects\IARProj\mobiledatalogger\Projects\B-L072Z-LRWAN1\Applications\LoRa\PingPong\EWARM\mlm32l07x01\Exe\Lora.out
#        --map
#        C:\Projects\IARProj\mobiledatalogger\Projects\B-L072Z-LRWAN1\Applications\LoRa\PingPong\EWARM\mlm32l07x01\List\Lora.map
#        --config
#        C:\Projects\IARProj\mobiledatalogger\Projects\B-L072Z-LRWAN1\Applications\LoRa\PingPong\EWARM/stm32l072xx_flash.icf
#        --semihosting --entry __iar_program_start --vfe --text_out locale)
#
###############################################################################

*******************************************************************************
*** RUNTIME MODEL ATTRIBUTES
***

CppFlavor       = *
__Heap_Handler  = DLMalloc
__SystemLibrary = DLib
__dlib_version  = 6


*******************************************************************************
*** HEAP SELECTION
***

The advanced heap was selected because the application calls memory
allocation functions outside of system library functions, and there
are calls to deallocation functions in the application.


*******************************************************************************
*** PLACEMENT SUMMARY
***

"A0":  place at 0x08000000 { ro section .intvec };
"P1":  place in [from 0x08000000 to 0x0802ffff] { ro };
define block CSTACK with size = 1K, alignment = 8 { };
define block HEAP with size = 512, alignment = 8 { };
"P2":  place in [from 0x20000000 to 0x20004fff] {
          rw, block CSTACK, block HEAP };
initialize by copy { rw };

  Section            Kind        Address    Size  Object
  -------            ----        -------    ----  ------
"A0":                                       0xc0
  .intvec            ro code  0x08000000    0xc0  startup_stm32l072xx.o [1]
                            - 0x080000c0    0xc0

"P1":                                     0x9ad7
  .text              ro code  0x080000c0  0x1c68  sx1276.o [1]
  .text              ro code  0x08001d28   0x2cc  timeServer.o [1]
  .text              ro code  0x08001ff4    0xe0  I32DivModFast.o [5]
  .text              ro code  0x080020d4    0xd6  mlm32l0xx_hal_msp.o [1]
  .rodata            const    0x080021aa     0x2  b-l072z-lrwan1.o [1]
  .text              ro code  0x080021ac    0x34  IxxToDbl.o [4]
  .text              ro code  0x080021e0    0xc2  DblDiv.o [4]
  .text              ro code  0x080022a2   0x184  DblMul.o [4]
  .text              ro code  0x08002426     0x2  startup_stm32l072xx.o [1]
  .text              ro code  0x08002428    0x52  DblToI32.o [4]
  .text              ro code  0x0800247a   0x1b4  DblAddSub.o [4]
  .text              ro code  0x0800262e     0x2  startup_stm32l072xx.o [1]
  .text              ro code  0x08002630   0x14c  round64.o [4]
  .text              ro code  0x0800277c    0x58  ceil.o [4]
  .text              ro code  0x080027d4    0x32  DblCmpGe.o [4]
  .text              ro code  0x08002806     0x2  startup_stm32l072xx.o [1]
  .text              ro code  0x08002808    0x58  floor.o [4]
  .text              ro code  0x08002860    0x18  utilities.o [1]
  .text              ro code  0x08002878    0x54  ABImemset.o [5]
  .text              ro code  0x080028cc   0x190  hw_gpio.o [1]
  .text              ro code  0x08002a5c   0x140  hw_spi.o [1]
  .text              ro code  0x08002b9c   0x480  hw_rtc.o [1]
  .text              ro code  0x0800301c     0x2  IntDivZer.o [5]
  .text              ro code  0x0800301e     0x2  startup_stm32l072xx.o [1]
  .text              ro code  0x08003020    0x14  stm32l0xx_hal_pwr.o [1]
  .text              ro code  0x08003034    0x24  stm32l0xx_hal_pwr_ex.o [1]
  .text              ro code  0x08003058   0x284  mlm32l0xx_hw.o [1]
  .text              ro code  0x080032dc   0x8b4  stm32l0xx_hal_rcc.o [1]
  .text              ro code  0x08003b90    0x10  debug.o [1]
  .text              ro code  0x08003ba0   0x218  stm32l0xx_hal_rcc_ex.o [1]
  .text              ro code  0x08003db8    0xbc  stm32l0xx_hal_cortex.o [1]
  .text              ro code  0x08003e74   0x244  stm32l0xx_hal_gpio.o [1]
  .text              ro code  0x080040b8   0x3b2  stm32l0xx_hal_spi.o [1]
  .text              ro code  0x0800446a     0x2  startup_stm32l072xx.o [1]
  .text              ro code  0x0800446c   0x72a  stm32l0xx_hal_rtc.o [1]
  .text              ro code  0x08004b96     0x2  startup_stm32l072xx.o [1]
  .text              ro code  0x08004b98    0x48  stm32l0xx_hal_rtc_ex.o [1]
  .text              ro code  0x08004be0    0x32  I64Mul.o [5]
  .text              ro code  0x08004c12    0x6a  I64DivMod.o [5]
  .text              ro code  0x08004c7c    0x9c  low_power_manager.o [1]
  .text              ro code  0x08004d18    0x5c  ABImemcpy.o [5]
  .text              ro code  0x08004d74    0xe0  trace.o [1]
  .text              ro code  0x08004e54   0x270  b-l072z-lrwan1.o [1]
  .text              ro code  0x080050c4   0x22e  stm32l0xx_hal_adc.o [1]
  .text              ro code  0x080052f2     0x2  startup_stm32l072xx.o [1]
  .text              ro code  0x080052f4     0xc  stm32l0xx_hal.o [1]
  .text              ro code  0x08005300     0x2  I64DivZer.o [5]
  .text              ro code  0x08005302     0x2  startup_stm32l072xx.o [1]
  .text              ro code  0x08005304   0x1d0  vcom.o [1]
  .text              ro code  0x080054d4   0x240  queue.o [1]
  .text              ro code  0x08005714    0x40  vsnprint.o [3]
  .text              ro code  0x08005754   0x904  stm32l0xx_hal_uart.o [1]
  .text              ro code  0x08006058   0x2a4  stm32l0xx_hal_dma.o [1]
  .text              ro code  0x080062fc   0xe72  xprintffull_nomb.o [3]
  .text              ro code  0x0800716e     0x2  stm32l0xx_hal_uart.o [1]
  .text              ro code  0x08007170     0x2  stm32l0xx_hal_uart_ex.o [1]
  .text              ro code  0x08007172     0x2  stm32l0xx_hal_uart.o [1]
  .text              ro code  0x08007174    0x16  strchr.o [5]
  .text              ro code  0x0800718a     0x2  startup_stm32l072xx.o [1]
  .text              ro code  0x0800718c    0x48  xfail_s.o [3]
  .text              ro code  0x080071d4    0x10  strlen.o [5]
  .text              ro code  0x080071e4    0x18  memchr.o [5]
  .text              ro code  0x080071fc    0x32  DblCmpLe.o [4]
  .text              ro code  0x0800722e     0x2  startup_stm32l072xx.o [1]
  .text              ro code  0x08007230     0x8  xlocale_c.o [3]
  .text              ro code  0x08007238     0xa  abort.o [3]
  .text              ro code  0x08007242     0x2  startup_stm32l072xx.o [1]
  .text              ro code  0x08007244    0x14  exit.o [6]
  .text              ro code  0x08007258  0x16d4  dlmalloc.o [3]
  .text              ro code  0x0800892c    0x2c  xgetmemchunk.o [3]
  .text              ro code  0x08008958   0x39c  flash.o [1]
  .text              ro code  0x08008cf4   0x22c  stm32l0xx_hal_flash.o [1]
  .text              ro code  0x08008f20    0xbc  stm32l0xx_hal_flash_ex.o [1]
  .text              ro code  0x08008fdc     0x8  heaptramp0.o [3]
  .text              ro code  0x08008fe4   0x370  main.o [1]
  .text              ro code  0x08009354    0x2c  stm32l0xx_hal.o [1]
  .text              ro code  0x08009380   0x318  mlm32l07x01.o [1]
  .rodata            const    0x08009698    0xb0  sx1276.o [1]
  .text              ro code  0x08009748    0xa8  mlm32l0xx_it.o [1]
  .text              ro code  0x080097f0    0x10  stm32l0xx_hal.o [1]
  .text              ro code  0x08009800    0x80  system_stm32l0xx.o [1]
  .rodata            const    0x08009880    0x74  mlm32l07x01.o [1]
  .text              ro code  0x080098f4    0x3c  zero_init3.o [5]
  .text              ro code  0x08009930    0x3c  packbits_init_single.o [5]
  .rodata            const    0x0800996c    0x30  sx1276.o [1]
  .text              ro code  0x0800999c    0x28  data_init.o [5]
  .iar.init_table    const    0x080099c4    0x20  - Linker created -
  .text              ro code  0x080099e4    0x1e  cmain.o [5]
  .text              ro code  0x08009a02     0x4  low_level_init.o [3]
  .text              ro code  0x08009a06     0x8  exit.o [3]
  .text              ro code  0x08009a0e     0x2  startup_stm32l072xx.o [1]
  .text              ro code  0x08009a10     0xa  cexit.o [5]
  .text              ro code  0x08009a1a    0x1c  xsnprout.o [3]
  .text              ro code  0x08009a36     0x2  startup_stm32l072xx.o [1]
  .rodata            const    0x08009a38    0x10  debug.o [1]
  .rodata            const    0x08009a48    0x10  flash.o [1]
  .rodata            const    0x08009a58    0x10  system_stm32l0xx.o [1]
  .rodata            const    0x08009a68    0x10  xprintffull_nomb.o [3]
  .text              ro code  0x08009a78    0x10  startup_stm32l072xx.o [1]
  .rodata            const    0x08009a88     0xc  flash.o [1]
  .rodata            const    0x08009a94     0xc  hw_rtc.o [1]
  .rodata            const    0x08009aa0     0xc  hw_rtc.o [1]
  .rodata            const    0x08009aac     0xc  system_stm32l0xx.o [1]
  .text              ro code  0x08009ab8     0xc  cstartup_M.o [5]
  .rodata            const    0x08009ac4     0x8  b-l072z-lrwan1.o [1]
  .rodata            const    0x08009acc     0x8  system_stm32l0xx.o [1]
  .rodata            const    0x08009ad4     0x4  xlocale_c.o [3]
  .text              ro code  0x08009ad8     0x2  startup_stm32l072xx.o [1]
  .text              ro code  0x08009ada     0x2  startup_stm32l072xx.o [1]
  .text              ro code  0x08009adc     0x2  startup_stm32l072xx.o [1]
  .text              ro code  0x08009ade     0x2  startup_stm32l072xx.o [1]
  .text              ro code  0x08009ae0     0x2  startup_stm32l072xx.o [1]
  .text              ro code  0x08009ae2     0x2  startup_stm32l072xx.o [1]
  .text              ro code  0x08009ae4     0x2  startup_stm32l072xx.o [1]
  .text              ro code  0x08009ae6     0x2  startup_stm32l072xx.o [1]
  .text              ro code  0x08009ae8     0x2  startup_stm32l072xx.o [1]
  .text              ro code  0x08009aea     0x2  startup_stm32l072xx.o [1]
  .text              ro code  0x08009aec     0x2  startup_stm32l072xx.o [1]
  .rodata            const    0x08009aee     0x1  b-l072z-lrwan1.o [1]
  .rodata            const    0x08009aef     0x0  zero_init3.o [5]
  .rodata            const    0x08009aef     0x0  packbits_init_single.o [5]
  Initializer bytes  const    0x08009aef    0xa8  <for P2-1>
                            - 0x08009b97  0x9ad7

"P2", part 1 of 3:                          0xb4
  P2-1                        0x20000000    0xb4  <Init block>
    .data            inited   0x20000000    0x10  b-l072z-lrwan1.o [1]
    .data            inited   0x20000010     0x4  b-l072z-lrwan1.o [1]
    .data            inited   0x20000014     0x4  flash.o [1]
    .data            inited   0x20000018     0x4  flash.o [1]
    .data            inited   0x2000001c     0x4  flash.o [1]
    .data            inited   0x20000020     0x8  flash.o [1]
    .data            inited   0x20000028     0x4  main.o [1]
    .data            inited   0x2000002c     0x4  main.o [1]
    .data            inited   0x20000030    0x14  main.o [1]
    .data            inited   0x20000044    0x18  mlm32l07x01.o [1]
    .data            inited   0x2000005c    0x18  sx1276.o [1]
    .data            inited   0x20000074     0x4  system_stm32l0xx.o [1]
    .data            inited   0x20000078    0x38  xlocale_c.o [3]
    .data            inited   0x200000b0     0x2  main.o [1]
    .data            inited   0x200000b2     0x1  main.o [1]
    .data            inited   0x200000b3     0x1  trace.o [1]
                            - 0x200000b4    0xb4

"P2", part 2 of 3:                         0x90c
  .bss               zero     0x200000b4   0x1d8  dlmalloc.o [3]
  .bss               zero     0x2000028c   0x100  sx1276.o [1]
  .bss               zero     0x2000038c   0x100  trace.o [1]
  .bss               zero     0x2000048c    0x8c  flash.o [1]
  .bss               zero     0x20000518    0x8c  main.o [1]
  .bss               zero     0x200005a4    0x80  vcom.o [1]
  .bss               zero     0x20000624    0x68  sx1276.o [1]
  .bss               zero     0x2000068c    0x5c  mlm32l0xx_hw.o [1]
  .bss               zero     0x200006e8    0x58  hw_spi.o [1]
  .bss               zero     0x20000740    0x48  vcom.o [1]
  .bss               zero     0x20000788    0x40  hw_gpio.o [1]
  .bss               zero     0x200007c8    0x38  flash.o [1]
  .bss               zero     0x20000800    0x38  flash.o [1]
  .bss               zero     0x20000838    0x38  flash.o [1]
  .bss               zero     0x20000870    0x28  hw_rtc.o [1]
  .bss               zero     0x20000898    0x24  hw_rtc.o [1]
  .bss               zero     0x200008bc    0x1c  hw_rtc.o [1]
  .bss               zero     0x200008d8    0x1c  main.o [1]
  .bss               zero     0x200008f4    0x18  stm32l0xx_hal_flash.o [1]
  .bss               zero     0x2000090c    0x18  sx1276.o [1]
  .bss               zero     0x20000924    0x18  sx1276.o [1]
  .bss               zero     0x2000093c    0x18  sx1276.o [1]
  .bss               zero     0x20000954    0x18  dlmalloc.o [3]
  .bss               zero     0x2000096c    0x10  trace.o [1]
  .bss               zero     0x2000097c     0xc  flash.o [1]
  .bss               zero     0x20000988     0x4  flash.o [1]
  .bss               zero     0x2000098c     0x4  low_power_manager.o [1]
  .bss               zero     0x20000990     0x4  low_power_manager.o [1]
  .bss               zero     0x20000994     0x4  main.o [1]
  .bss               zero     0x20000998     0x4  stm32l0xx_hal.o [1]
  .bss               zero     0x2000099c     0x4  sx1276.o [1]
  .bss               zero     0x200009a0     0x4  sx1276.o [1]
  .bss               zero     0x200009a4     0x4  timeServer.o [1]
  .bss               zero     0x200009a8     0x4  vcom.o [1]
  .bss               zero     0x200009ac     0x4  xgetmemchunk.o [3]
  .bss               zero     0x200009b0     0x4  xfail_s.o [3]
  .bss               zero     0x200009b4     0x2  hw_rtc.o [1]
  .bss               zero     0x200009b6     0x1  hw_rtc.o [1]
  .bss               zero     0x200009b7     0x1  main.o [1]
  .bss               zero     0x200009b8     0x1  main.o [1]
  .bss               zero     0x200009b9     0x1  main.o [1]
  .bss               zero     0x200009ba     0x1  main.o [1]
  .bss               zero     0x200009bb     0x1  main.o [1]
  .bss               zero     0x200009bc     0x1  main.o [1]
  .bss               zero     0x200009bd     0x1  mlm32l0xx_hw.o [1]
  .bss               zero     0x200009be     0x1  mlm32l0xx_hw.o [1]
  .bss               zero     0x200009bf     0x1  sx1276.o [1]
                            - 0x200009c0   0x90c

"P2", part 3 of 3:                         0x600
  CSTACK                      0x200009c0   0x400  <Block>
    CSTACK           uninit   0x200009c0   0x400  <Block tail>
  HEAP                        0x20000dc0   0x200  <Block>
    HEAP             uninit   0x20000dc0   0x200  <Block tail>
                            - 0x20000fc0   0x600


*******************************************************************************
*** INIT TABLE
***

          Address     Size
          -------     ----
Zero (__iar_zero_init3)
    1 destination range, total size 0x90c:
          0x200000b4  0x90c

Copy/packbits (__iar_packbits_init_single3)
    1 source range, total size 0xa8 (93% of destination):
          0x08009aef   0xa8
    1 destination range, total size 0xb4:
          0x20000000   0xb4



*******************************************************************************
*** MODULE SUMMARY
***

    Module                    ro code  ro data  rw data
    ------                    -------  -------  -------
C:\Projects\IARProj\mobiledatalogger\Projects\B-L072Z-LRWAN1\Applications\LoRa\PingPong\EWARM\mlm32l07x01\Obj: [1]
    b-l072z-lrwan1.o              624       29       20
    debug.o                        16       16
    flash.o                       924       47      344
    hw_gpio.o                     400                64
    hw_rtc.o                    1 152       24      107
    hw_spi.o                      320                88
    low_power_manager.o           156                 8
    main.o                        880       29      209
    mlm32l07x01.o                 792      138       24
    mlm32l0xx_hal_msp.o           214
    mlm32l0xx_hw.o                644                94
    mlm32l0xx_it.o                168
    queue.o                       576
    startup_stm32l072xx.o         256
    stm32l0xx_hal.o                72                 4
    stm32l0xx_hal_adc.o           558
    stm32l0xx_hal_cortex.o        188
    stm32l0xx_hal_dma.o           676
    stm32l0xx_hal_flash.o         556                24
    stm32l0xx_hal_flash_ex.o      188
    stm32l0xx_hal_gpio.o          580
    stm32l0xx_hal_pwr.o            20
    stm32l0xx_hal_pwr_ex.o         36
    stm32l0xx_hal_rcc.o         2 228
    stm32l0xx_hal_rcc_ex.o        536
    stm32l0xx_hal_rtc.o         1 834
    stm32l0xx_hal_rtc_ex.o         72
    stm32l0xx_hal_spi.o           946
    stm32l0xx_hal_uart.o        2 312
    stm32l0xx_hal_uart_ex.o         2
    sx1276.o                    7 272      247      465
    system_stm32l0xx.o            128       40        4
    timeServer.o                  716                 4
    trace.o                       224        1      273
    utilities.o                    24
    vcom.o                        464               204
    ---------------------------------------------------
    Total:                     26 754      571    1 936

command line: [2]
    ---------------------------------------------------
    Total:

dl6M_tlf.a: [3]
    abort.o                        10
    dlmalloc.o                  5 844               496
    exit.o                          8
    heaptramp0.o                    8
    low_level_init.o                4
    vsnprint.o                     64
    xfail_s.o                      72                 4
    xgetmemchunk.o                 44                 4
    xlocale_c.o                     8       56       56
    xprintffull_nomb.o          3 698       16
    xsnprout.o                     28
    ---------------------------------------------------
    Total:                      9 788       72      560

m6M_tl.a: [4]
    DblAddSub.o                   436
    DblCmpGe.o                     50
    DblCmpLe.o                     50
    DblDiv.o                      194
    DblMul.o                      388
    DblToI32.o                     82
    IxxToDbl.o                     52
    ceil.o                         88
    floor.o                        88
    round64.o                     332
    ---------------------------------------------------
    Total:                      1 760

rt6M_tl.a: [5]
    ABImemcpy.o                    92
    ABImemset.o                    84
    I32DivModFast.o               224
    I64DivMod.o                   106
    I64DivZer.o                     2
    I64Mul.o                       50
    IntDivZer.o                     2
    cexit.o                        10
    cmain.o                        30
    cstartup_M.o                   12
    data_init.o                    40
    memchr.o                       24
    packbits_init_single.o         60
    strchr.o                       22
    strlen.o                       16
    zero_init3.o                   60
    ---------------------------------------------------
    Total:                        834

shb_l.a: [6]
    exit.o                         20
    ---------------------------------------------------
    Total:                         20

    Linker created                          32    1 536
-------------------------------------------------------
    Grand Total:               39 156      675    4 032


*******************************************************************************
*** ENTRY LIST
***

Entry                      Address   Size  Type      Object
-----                      -------   ----  ----      ------
.iar.init_table$$Base   0x080099c4          --   Gb  - Linker created -
.iar.init_table$$Limit  0x080099e4          --   Gb  - Linker created -
?main                   0x080099e5         Code  Gb  cmain.o [5]
AHBPrescTable           0x08009a58   0x10  Data  Gb  system_stm32l0xx.o [1]
APBPrescTable           0x08009acc    0x8  Data  Gb  system_stm32l0xx.o [1]
AdcInitialized          0x200009bd    0x1  Data  Lc  mlm32l0xx_hw.o [1]
Address                 0x20000014    0x4  Data  Gb  flash.o [1]
BSP_LED_Init            0x08004ed9   0xac  Code  Gb  b-l072z-lrwan1.o [1]
BSP_LED_Off             0x08004fa3   0x1e  Code  Gb  b-l072z-lrwan1.o [1]
BSP_LED_On              0x08004f85   0x1e  Code  Gb  b-l072z-lrwan1.o [1]
BSP_LED_Toggle          0x08004fc1   0x1c  Code  Gb  b-l072z-lrwan1.o [1]
BSP_PB_GetState         0x0800507f   0x1c  Code  Gb  b-l072z-lrwan1.o [1]
BSP_PB_Init             0x08004fdd   0xa2  Code  Gb  b-l072z-lrwan1.o [1]
BUTTON_IRQn             0x08009aee    0x1  Data  Gb  b-l072z-lrwan1.o [1]
BUTTON_PIN              0x080021aa    0x2  Data  Gb  b-l072z-lrwan1.o [1]
BUTTON_PORT             0x20000010    0x4  Data  Gb  b-l072z-lrwan1.o [1]
BoardCallbacks          0x20000044   0x18  Data  Lc  mlm32l07x01.o [1]
BufferSize              0x200000b0    0x2  Data  Gb  main.o [1]
CSTACK$$Base            0x200009c0          --   Gb  - Linker created -
CSTACK$$Limit           0x20000dc0          --   Gb  - Linker created -
DMA1_Channel4_5_6_7_IRQHandler
                        0x08009765    0x8  Code  Gb  mlm32l0xx_it.o [1]
DMA_SetConfig           0x080062cd   0x30  Code  Lc  stm32l0xx_hal_dma.o [1]
DaysInMonth             0x08009a94    0xc  Data  Lc  hw_rtc.o [1]
DaysInMonthLeapYear     0x08009aa0    0xc  Data  Lc  hw_rtc.o [1]
DioIrq                  0x2000005c   0x18  Data  Gb  sx1276.o [1]
EXTI0_1_IRQHandler      0x08009775   0x10  Code  Gb  mlm32l0xx_it.o [1]
EXTI2_3_IRQHandler      0x08009785   0x10  Code  Gb  mlm32l0xx_it.o [1]
EXTI4_15_IRQHandler     0x08009795   0x5c  Code  Gb  mlm32l0xx_it.o [1]
EraseInitStruct         0x2000097c    0xc  Data  Lc  flash.o [1]
Error_Handler           0x08003b91    0xa  Code  Gb  debug.o [1]
FLASH_PageErase         0x08008fa9   0x2a  Code  Gb  stm32l0xx_hal_flash_ex.o [1]
FLASH_SetErrorCode      0x08008e35   0xcc  Code  Lc  stm32l0xx_hal_flash.o [1]
FLASH_WaitForLastOperation
                        0x08008db1   0x7e  Code  Gb  stm32l0xx_hal_flash.o [1]
FskBandwidths           0x08009698   0xb0  Data  Gb  sx1276.o [1]
GetFskBandwidthRegValue
                        0x080002e9   0x3c  Code  Lc  sx1276.o [1]
GpioIrq                 0x20000788   0x40  Data  Lc  hw_gpio.o [1]
HAL_ADC_Init            0x080050c5  0x214  Code  Gb  stm32l0xx_hal_adc.o [1]
HAL_DMA_Abort_IT        0x08006185   0x58  Code  Gb  stm32l0xx_hal_dma.o [1]
HAL_DMA_IRQHandler      0x080061dd   0xf0  Code  Gb  stm32l0xx_hal_dma.o [1]
HAL_DMA_Init            0x08006059   0x98  Code  Gb  stm32l0xx_hal_dma.o [1]
HAL_DMA_Start_IT        0x08006101   0x84  Code  Gb  stm32l0xx_hal_dma.o [1]
HAL_Delay               0x080020d9    0xa  Code  Gb  mlm32l0xx_hal_msp.o [1]
HAL_FLASHEx_Erase       0x08008f21   0x78  Code  Gb  stm32l0xx_hal_flash_ex.o [1]
HAL_FLASH_Lock          0x08008d8d   0x1c  Code  Gb  stm32l0xx_hal_flash.o [1]
HAL_FLASH_Program       0x08008cf5   0x3e  Code  Gb  stm32l0xx_hal_flash.o [1]
HAL_FLASH_Unlock        0x08008d33   0x5a  Code  Gb  stm32l0xx_hal_flash.o [1]
HAL_GPIO_EXTI_Callback  0x08002181    0xa  Code  Gb  mlm32l0xx_hal_msp.o [1]
HAL_GPIO_EXTI_IRQHandler
                        0x08004081   0x1c  Code  Gb  stm32l0xx_hal_gpio.o [1]
HAL_GPIO_Init           0x08003e75  0x1be  Code  Gb  stm32l0xx_hal_gpio.o [1]
HAL_GPIO_ReadPin        0x0800404d   0x16  Code  Gb  stm32l0xx_hal_gpio.o [1]
HAL_GPIO_TogglePin      0x08004077    0xa  Code  Gb  stm32l0xx_hal_gpio.o [1]
HAL_GPIO_WritePin       0x08004063   0x14  Code  Gb  stm32l0xx_hal_gpio.o [1]
HAL_GetTick             0x080052f5    0xc  Code  Wk  stm32l0xx_hal.o [1]
HAL_IncTick             0x080097f1   0x10  Code  Wk  stm32l0xx_hal.o [1]
HAL_Init                0x08009355   0x28  Code  Gb  stm32l0xx_hal.o [1]
HAL_InitTick            0x080020d5    0x4  Code  Gb  mlm32l0xx_hal_msp.o [1]
HAL_MspInit             0x080020e3   0x2e  Code  Gb  mlm32l0xx_hal_msp.o [1]
HAL_NVIC_EnableIRQ      0x08003e5d    0xa  Code  Gb  stm32l0xx_hal_cortex.o [1]
HAL_NVIC_SetPriority    0x08003e53    0xa  Code  Gb  stm32l0xx_hal_cortex.o [1]
HAL_PWREx_EnableFastWakeUp
                        0x08003035   0x10  Code  Gb  stm32l0xx_hal_pwr_ex.o [1]
HAL_PWREx_EnableUltraLowPower
                        0x08003045   0x10  Code  Gb  stm32l0xx_hal_pwr_ex.o [1]
HAL_PWR_DisablePVD      0x08003021    0xe  Code  Gb  stm32l0xx_hal_pwr.o [1]
HAL_RCCEx_PeriphCLKConfig
                        0x08003ba1  0x1de  Code  Gb  stm32l0xx_hal_rcc_ex.o [1]
HAL_RCC_ClockConfig     0x080038cd  0x1ba  Code  Gb  stm32l0xx_hal_rcc.o [1]
HAL_RCC_GetHCLKFreq     0x08003b21    0x6  Code  Gb  stm32l0xx_hal_rcc.o [1]
HAL_RCC_GetPCLK1Freq    0x08003b2d   0x18  Code  Gb  stm32l0xx_hal_rcc.o [1]
HAL_RCC_GetPCLK2Freq    0x08003b45   0x18  Code  Gb  stm32l0xx_hal_rcc.o [1]
HAL_RCC_GetSysClockFreq
                        0x08003a9d   0x84  Code  Gb  stm32l0xx_hal_rcc.o [1]
HAL_RCC_OscConfig       0x080032dd  0x5c6  Code  Gb  stm32l0xx_hal_rcc.o [1]
HAL_RTCEx_EnableBypassShadow
                        0x08004b99   0x48  Code  Gb  stm32l0xx_hal_rtc_ex.o [1]
HAL_RTC_AlarmAEventCallback
                        0x08002179    0x8  Code  Gb  mlm32l0xx_hal_msp.o [1]
HAL_RTC_DeactivateAlarm
                        0x08004a01   0xd6  Code  Gb  stm32l0xx_hal_rtc.o [1]
HAL_RTC_GetDate         0x080047b9   0x4a  Code  Gb  stm32l0xx_hal_rtc.o [1]
HAL_RTC_GetTime         0x08004661   0x5e  Code  Gb  stm32l0xx_hal_rtc.o [1]
HAL_RTC_Init            0x0800446d   0xe0  Code  Gb  stm32l0xx_hal_rtc.o [1]
HAL_RTC_MspInit         0x08002111   0x5a  Code  Gb  mlm32l0xx_hal_msp.o [1]
HAL_RTC_SetAlarm_IT     0x08004811  0x1e2  Code  Gb  stm32l0xx_hal_rtc.o [1]
HAL_RTC_SetDate         0x080046c5   0xf4  Code  Gb  stm32l0xx_hal_rtc.o [1]
HAL_RTC_SetTime         0x0800454d  0x114  Code  Gb  stm32l0xx_hal_rtc.o [1]
HAL_RTC_WaitForSynchro  0x08004ae5   0x32  Code  Gb  stm32l0xx_hal_rtc.o [1]
HAL_SPI_Init            0x080040b9   0x90  Code  Gb  stm32l0xx_hal_spi.o [1]
HAL_SPI_TransmitReceive
                        0x0800414d  0x21c  Code  Gb  stm32l0xx_hal_spi.o [1]
HAL_UARTEx_WakeupCallback
                        0x08007171    0x2  Code  Wk  stm32l0xx_hal_uart_ex.o [1]
HAL_UART_IRQHandler     0x0800589d  0x15a  Code  Gb  stm32l0xx_hal_uart.o [1]
HAL_UART_Init           0x08005755   0x7a  Code  Gb  stm32l0xx_hal_uart.o [1]
HAL_UART_MspInit        0x08005377   0xca  Code  Gb  vcom.o [1]
HAL_UART_MspInit::hdma_tx
                        0x20000740   0x48  Data  Lc  vcom.o [1]
HAL_UART_Transmit_DMA   0x080057d5   0xbc  Code  Gb  stm32l0xx_hal_uart.o [1]
HAL_UART_TxCpltCallback
                        0x08005357    0xa  Code  Gb  vcom.o [1]
HEAP$$Base              0x20000dc0          --   Gb  - Linker created -
HEAP$$Limit             0x20000fc0          --   Gb  - Linker created -
HW_AdcInit              0x0800321d   0x82  Code  Gb  mlm32l0xx_hw.o [1]
HW_GPIO_GetBitPos       0x080029f7   0x44  Code  Lc  hw_gpio.o [1]
HW_GPIO_Init            0x080028cd   0xb0  Code  Gb  hw_gpio.o [1]
HW_GPIO_IrqHandler      0x080029c7   0x24  Code  Gb  hw_gpio.o [1]
HW_GPIO_SetIrq          0x0800297d   0x4a  Code  Gb  hw_gpio.o [1]
HW_GPIO_Write           0x080029eb    0xc  Code  Gb  hw_gpio.o [1]
HW_GpioInit             0x080030a1   0xd4  Code  Gb  mlm32l0xx_hw.o [1]
HW_Init                 0x08003059   0x48  Code  Gb  mlm32l0xx_hw.o [1]
HW_RTC_DelayMs          0x08002d4d   0x22  Code  Gb  hw_rtc.o [1]
HW_RTC_GetCalendarValue
                        0x08002f25   0xae  Code  Lc  hw_rtc.o [1]
HW_RTC_GetMinimumTimeout
                        0x08002c4f    0x4  Code  Gb  hw_rtc.o [1]
HW_RTC_GetTimerContext  0x08002d83    0x6  Code  Gb  hw_rtc.o [1]
HW_RTC_GetTimerElapsedTime
                        0x08002cc1   0x16  Code  Gb  hw_rtc.o [1]
HW_RTC_GetTimerValue    0x08002cd7   0x10  Code  Gb  hw_rtc.o [1]
HW_RTC_Init             0x08002ba3   0x1e  Code  Gb  hw_rtc.o [1]
HW_RTC_Initalized       0x200009b6    0x1  Data  Lc  hw_rtc.o [1]
HW_RTC_IrqHandler       0x08002d11   0x3c  Code  Gb  hw_rtc.o [1]
HW_RTC_SetAlarm         0x08002c81   0x40  Code  Gb  hw_rtc.o [1]
HW_RTC_SetAlarmConfig   0x08002d89    0xe  Code  Lc  hw_rtc.o [1]
HW_RTC_SetConfig        0x08002bc1   0x8e  Code  Lc  hw_rtc.o [1]
HW_RTC_SetTimerContext  0x08002d6f   0x14  Code  Gb  hw_rtc.o [1]
HW_RTC_StartWakeUpAlarm
                        0x08002da9  0x174  Code  Lc  hw_rtc.o [1]
HW_RTC_StopAlarm        0x08002ce7   0x2a  Code  Gb  hw_rtc.o [1]
HW_RTC_Tick2ms          0x08002c69   0x18  Code  Gb  hw_rtc.o [1]
HW_RTC_ms2Tick          0x08002c53   0x16  Code  Gb  hw_rtc.o [1]
HW_SPI_InOut            0x08002b31   0x1c  Code  Gb  hw_spi.o [1]
HW_SPI_Init             0x08002a5d   0x6e  Code  Gb  hw_spi.o [1]
HW_SPI_IoInit           0x08002acb   0x66  Code  Gb  hw_spi.o [1]
HardFault_Handler       0x0800974b    0x6  Code  Gb  mlm32l0xx_it.o [1]
LED_PIN                 0x08009ac4    0x8  Data  Gb  b-l072z-lrwan1.o [1]
LED_PORT                0x20000000   0x10  Data  Gb  b-l072z-lrwan1.o [1]
LL_RTC_TIME_GetSubSecond
                        0x08002b9d    0x6  Code  Lc  hw_rtc.o [1]
LPM_GetMode             0x08004ce5   0x2a  Code  Gb  low_power_manager.o [1]
LPM_SetOffMode          0x08004c7d   0x34  Code  Gb  low_power_manager.o [1]
LPM_SetStopMode         0x08004cb1   0x34  Code  Gb  low_power_manager.o [1]
LoRa                    0x20000518   0x8c  Data  Gb  main.o [1]
LoRaBoardCallbacks      0x200009a0    0x4  Data  Lc  sx1276.o [1]
LoadInt                 0x080064a9   0x74  Code  Lc  xprintffull_nomb.o [3]
MSP_GetIRQn             0x0800218b   0x20  Code  Gb  mlm32l0xx_hal_msp.o [1]
McuInitialized          0x200009be    0x1  Data  Lc  mlm32l0xx_hw.o [1]
McuWakeUpTimeCal        0x200009b4    0x2  Data  Lc  hw_rtc.o [1]
MsgTraceQueue           0x2000096c   0x10  Data  Lc  trace.o [1]
MsgTraceQueueBuff       0x2000038c  0x100  Data  Lc  trace.o [1]
NMI_Handler             0x08009749    0x2  Code  Gb  mlm32l0xx_it.o [1]
OffModeDisable          0x20000990    0x4  Data  Lc  low_power_manager.o [1]
OnRxDone                0x080092ad   0x32  Code  Gb  main.o [1]
OnRxError               0x08009309   0x10  Code  Gb  main.o [1]
OnRxTimeout             0x080092f9   0x10  Code  Gb  main.o [1]
OnTxDone                0x0800927b   0x10  Code  Gb  main.o [1]
OnTxTimeout             0x080092e9   0x10  Code  Gb  main.o [1]
PAGEError               0x20000988    0x4  Data  Gb  flash.o [1]
PLLMulTable             0x08009aac    0xc  Data  Gb  system_stm32l0xx.o [1]
PendSV_Handler          0x08009753    0x2  Code  Gb  mlm32l0xx_it.o [1]
RTC_AlarmStructure      0x20000870   0x28  Data  Lc  hw_rtc.o [1]
RTC_Bcd2ToByte          0x08004b85   0x12  Code  Gb  stm32l0xx_hal_rtc.o [1]
RTC_ByteToBcd2          0x08004b6d   0x18  Code  Gb  stm32l0xx_hal_rtc.o [1]
RTC_EnterInitMode       0x08004b1d   0x36  Code  Gb  stm32l0xx_hal_rtc.o [1]
RTC_IRQHandler          0x0800976d    0x8  Code  Gb  mlm32l0xx_it.o [1]
Radio                   0x08009880   0x74  Data  Gb  mlm32l07x01.o [1]
RadioEvents             0x200008d8   0x1c  Data  Lc  main.o [1]
RadioEvents             0x2000099c    0x4  Data  Lc  sx1276.o [1]
RadioRegsInit           0x0800996c   0x30  Data  Gb  sx1276.o [1]
Region$$Table$$Base     0x080099c4          --   Gb  - Linker created -
Region$$Table$$Limit    0x080099e4          --   Gb  - Linker created -
RssiValue               0x200009b8    0x1  Data  Gb  main.o [1]
RtcHandle               0x20000898   0x24  Data  Lc  hw_rtc.o [1]
RtcTimerContext         0x200008bc   0x1c  Data  Lc  hw_rtc.o [1]
RxChainCalibration      0x08000253   0x96  Code  Gb  sx1276.o [1]
RxCounter               0x20000994    0x4  Data  Gb  main.o [1]
RxTimeoutSyncWord       0x2000093c   0x18  Data  Gb  sx1276.o [1]
RxTimeoutTimer          0x20000924   0x18  Data  Gb  sx1276.o [1]
RxTxBuffer              0x2000028c  0x100  Data  Lc  sx1276.o [1]
SPI_EndRxTxTransaction  0x08004411   0x54  Code  Lc  stm32l0xx_hal_spi.o [1]
SPI_WaitFlagStateUntilTimeout
                        0x08004369   0xa6  Code  Lc  stm32l0xx_hal_spi.o [1]
SVC_Handler             0x08009751    0x2  Code  Gb  mlm32l0xx_it.o [1]
SX1276                  0x20000624   0x68  Data  Gb  sx1276.o [1]
SX1276AntSwDeInit       0x080095dd   0x5c  Code  Lc  mlm32l07x01.o [1]
SX1276AntSwInit         0x08009581   0x5c  Code  Lc  mlm32l07x01.o [1]
SX1276BoardInit         0x080000c1    0x6  Code  Gb  sx1276.o [1]
SX1276CheckRfFrequency  0x08009695    0x4  Code  Gb  mlm32l07x01.o [1]
SX1276GetPaSelect       0x0800955d   0x10  Code  Gb  mlm32l07x01.o [1]
SX1276GetStatus         0x08000157    0x6  Code  Gb  sx1276.o [1]
SX1276GetTimeOnAir      0x080009e9  0x218  Code  Gb  sx1276.o [1]
SX1276GetWakeTime       0x08009381    0x4  Code  Gb  mlm32l07x01.o [1]
SX1276GetWakeupTime     0x08001535    0xe  Code  Gb  sx1276.o [1]
SX1276Init              0x080000c7   0x90  Code  Gb  sx1276.o [1]
SX1276IoDeInit          0x0800944d   0x42  Code  Gb  mlm32l07x01.o [1]
SX1276IoInit            0x080093b3   0x62  Code  Gb  mlm32l07x01.o [1]
SX1276IoIrqInit         0x08009415   0x38  Code  Gb  mlm32l07x01.o [1]
SX1276IsChannelFree     0x080001a5   0x6a  Code  Gb  sx1276.o [1]
SX1276OnDio0Irq         0x08001679  0x334  Code  Gb  sx1276.o [1]
SX1276OnDio1Irq         0x080019d9  0x15c  Code  Gb  sx1276.o [1]
SX1276OnDio2Irq         0x08001b4d  0x110  Code  Gb  sx1276.o [1]
SX1276OnDio3Irq         0x08001c69   0x6a  Code  Gb  sx1276.o [1]
SX1276OnDio4Irq         0x08001cd9   0x24  Code  Gb  sx1276.o [1]
SX1276OnTimeoutIrq      0x08001551  0x102  Code  Gb  sx1276.o [1]
SX1276Random            0x0800020f   0x44  Code  Gb  sx1276.o [1]
SX1276Read              0x0800140b   0x12  Code  Gb  sx1276.o [1]
SX1276ReadBuffer        0x08001469   0x4a  Code  Gb  sx1276.o [1]
SX1276ReadFifo          0x080014c3   0x10  Code  Gb  sx1276.o [1]
SX1276ReadRssi          0x08001255   0x48  Code  Gb  sx1276.o [1]
SX1276Reset             0x0800129d   0x4a  Code  Gb  sx1276.o [1]
SX1276Send              0x08000c11  0x118  Code  Gb  sx1276.o [1]
SX1276SetAntSw          0x08009639   0x48  Code  Gb  mlm32l07x01.o [1]
SX1276SetAntSwLowPower  0x0800956d   0x14  Code  Gb  mlm32l07x01.o [1]
SX1276SetChannel        0x0800015d   0x48  Code  Gb  sx1276.o [1]
SX1276SetMaxPayloadLength
                        0x080014d3   0x3a  Code  Gb  sx1276.o [1]
SX1276SetModem          0x08001369   0x86  Code  Gb  sx1276.o [1]
SX1276SetOpMode         0x080012f1   0x6e  Code  Gb  sx1276.o [1]
SX1276SetPublicNetwork  0x0800150d   0x28  Code  Gb  sx1276.o [1]
SX1276SetRfTxPower      0x0800948f   0xce  Code  Gb  mlm32l07x01.o [1]
SX1276SetRx             0x08000dc5  0x2e4  Code  Gb  sx1276.o [1]
SX1276SetRxConfig       0x08000359  0x326  Code  Gb  sx1276.o [1]
SX1276SetSleep          0x08000d29   0x26  Code  Gb  sx1276.o [1]
SX1276SetStby           0x08000d5d   0x1c  Code  Gb  sx1276.o [1]
SX1276SetTx             0x080010c5   0xb0  Code  Gb  sx1276.o [1]
SX1276SetTxConfig       0x080006d5  0x2d2  Code  Gb  sx1276.o [1]
SX1276SetTxContinuousWave
                        0x080011c5   0x82  Code  Gb  sx1276.o [1]
SX1276SetXO             0x08009385   0x2e  Code  Gb  mlm32l07x01.o [1]
SX1276StartCad          0x08001175   0x3a  Code  Gb  sx1276.o [1]
SX1276Write             0x080013fd    0xe  Code  Gb  sx1276.o [1]
SX1276WriteBuffer       0x0800141d   0x4c  Code  Gb  sx1276.o [1]
SX1276WriteFifo         0x080014b3   0x10  Code  Gb  sx1276.o [1]
SnrValue                0x200009b9    0x1  Data  Gb  main.o [1]
SpiFrequency            0x08002b4d   0x38  Code  Lc  hw_spi.o [1]
State                   0x200009b7    0x1  Data  Gb  main.o [1]
StopModeDisable         0x2000098c    0x4  Data  Lc  low_power_manager.o [1]
SysTick_Handler         0x08009755    0x8  Code  Gb  mlm32l0xx_it.o [1]
SystemClock_Config      0x08003175   0x96  Code  Gb  mlm32l0xx_hw.o [1]
SystemCoreClock         0x20000074    0x4  Data  Gb  system_stm32l0xx.o [1]
SystemInit              0x08009801   0x5a  Code  Gb  system_stm32l0xx.o [1]
TimerExists             0x08001f5d   0x1a  Code  Lc  timeServer.o [1]
TimerGetCurrentTime     0x08001f31    0xc  Code  Gb  timeServer.o [1]
TimerGetElapsedTime     0x08001f3d   0x20  Code  Gb  timeServer.o [1]
TimerInit               0x08001d29   0x1c  Code  Gb  timeServer.o [1]
TimerInsertNewHeadTimer
                        0x08001fcf   0x1e  Code  Lc  timeServer.o [1]
TimerInsertTimer        0x08001fa1   0x2e  Code  Lc  timeServer.o [1]
TimerIrqHandler         0x08001daf   0xb4  Code  Gb  timeServer.o [1]
TimerListHead           0x200009a4    0x4  Data  Lc  timeServer.o [1]
TimerSetTimeout         0x08001f77   0x2a  Code  Lc  timeServer.o [1]
TimerSetValue           0x08001f0d   0x24  Code  Gb  timeServer.o [1]
TimerStart              0x08001d45   0x6a  Code  Gb  timeServer.o [1]
TimerStop               0x08001e63   0xaa  Code  Gb  timeServer.o [1]
TraceInit               0x08004d75   0x16  Code  Gb  trace.o [1]
TracePeripheralReady    0x200000b3    0x1  Data  Gb  trace.o [1]
TraceSend               0x08004d8b   0x72  Code  Gb  trace.o [1]
Trace_TxCpltCallback    0x08004dfd   0x46  Code  Lc  trace.o [1]
TxCpltCallback          0x200009a8    0x4  Data  Lc  vcom.o [1]
TxTimeoutTimer          0x2000090c   0x18  Data  Gb  sx1276.o [1]
UART_AdvFeatureConfig   0x08005d7d   0xde  Code  Gb  stm32l0xx_hal_uart.o [1]
UART_CheckIdleState     0x08005e61   0x64  Code  Gb  stm32l0xx_hal_uart.o [1]
UART_DMAAbortOnError    0x0800601d   0x16  Code  Lc  stm32l0xx_hal_uart.o [1]
UART_DMAError           0x08005fd5   0x48  Code  Lc  stm32l0xx_hal_uart.o [1]
UART_DMATransmitCplt    0x08005f6d   0x34  Code  Lc  stm32l0xx_hal_uart.o [1]
UART_DMATxHalfCplt      0x08005fa1    0xa  Code  Lc  stm32l0xx_hal_uart.o [1]
UART_EndRxTransfer      0x08005f45   0x22  Code  Lc  stm32l0xx_hal_uart.o [1]
UART_EndTransmit_IT     0x08006033   0x1c  Code  Lc  stm32l0xx_hal_uart.o [1]
UART_EndTxTransfer      0x08005f33   0x12  Code  Lc  stm32l0xx_hal_uart.o [1]
UART_SetConfig          0x080059fd  0x366  Code  Gb  stm32l0xx_hal_uart.o [1]
UART_WaitOnFlagUntilTimeout
                        0x08005ecd   0x66  Code  Gb  stm32l0xx_hal_uart.o [1]
USART2_IRQHandler       0x0800975d    0x8  Code  Gb  mlm32l0xx_it.o [1]
UartHandle              0x200005a4   0x80  Data  Lc  vcom.o [1]
X                       0x200007c8   0x38  Data  Gb  flash.o [1]
Y                       0x20000800   0x38  Data  Gb  flash.o [1]
Z                       0x20000838   0x38  Data  Gb  flash.o [1]
_GenldFullNoMb          0x08006ec5  0x276  Code  Lc  xprintffull_nomb.o [3]
_LdtobFullNoMb          0x08006a4d  0x462  Code  Lc  xprintffull_nomb.o [3]
_LitobFullNoMb          0x080068e1  0x11a  Code  Lc  xprintffull_nomb.o [3]
_Locale_lconv           0x20000078   0x38  Data  Lc  xlocale_c.o [3]
_PrintfFullNoMb         0x080062fd  0x1a0  Code  Gb  xprintffull_nomb.o [3]
_PutcharsFullNoMb       0x0800713b   0x32  Code  Lc  xprintffull_nomb.o [3]
_PutfldFullNoMb         0x0800651d  0x264  Code  Lc  xprintffull_nomb.o [3]
_PuttxtFullNoMb         0x080067cd  0x114  Code  Lc  xprintffull_nomb.o [3]
_SNProut                0x08009a1b   0x1c  Code  Gb  xsnprout.o [3]
__NVIC_EnableIRQ        0x08003db9   0x16  Code  Lc  stm32l0xx_hal_cortex.o [1]
__NVIC_SetPriority      0x08004e55   0x84  Code  Lc  b-l072z-lrwan1.o [1]
__NVIC_SetPriority      0x08003dcf   0x84  Code  Lc  stm32l0xx_hal_cortex.o [1]
__aeabi_cdcmple         0x080071fd         Code  Gb  DblCmpLe.o [4]
__aeabi_cdrcmple        0x080027d5         Code  Gb  DblCmpGe.o [4]
__aeabi_d2iz            0x08002429         Code  Gb  DblToI32.o [4]
__aeabi_d2uiz           0x0800244d         Code  Gb  DblToI32.o [4]
__aeabi_dadd            0x0800247b         Code  Gb  DblAddSub.o [4]
__aeabi_ddiv            0x080021e1         Code  Gb  DblDiv.o [4]
__aeabi_dmul            0x080022a3         Code  Gb  DblMul.o [4]
__aeabi_dsub            0x08002541         Code  Gb  DblAddSub.o [4]
__aeabi_i2d             0x080021cd         Code  Gb  IxxToDbl.o [4]
__aeabi_idiv            0x08002021         Code  Gb  I32DivModFast.o [5]
__aeabi_idiv0           0x0800301d         Code  Gb  IntDivZer.o [5]
__aeabi_idivmod         0x08002021         Code  Gb  I32DivModFast.o [5]
__aeabi_ldiv0           0x08005301         Code  Gb  I64DivZer.o [5]
__aeabi_lmul            0x08004be1         Code  Gb  I64Mul.o [5]
__aeabi_memclr4         0x080028c9         Code  Gb  ABImemset.o [5]
__aeabi_memclr8         0x080028c9         Code  Gb  ABImemset.o [5]
__aeabi_memcpy          0x08004d19         Code  Gb  ABImemcpy.o [5]
__aeabi_memcpy4         0x08004d41         Code  Wk  ABImemcpy.o [5]
__aeabi_memset          0x08002879         Code  Gb  ABImemset.o [5]
__aeabi_ui2d            0x080021ad         Code  Gb  IxxToDbl.o [4]
__aeabi_uidiv           0x08002027         Code  Gb  I32DivModFast.o [5]
__aeabi_uidivmod        0x08002027         Code  Gb  I32DivModFast.o [5]
__aeabi_uldivmod        0x08004c13         Code  Gb  I64DivMod.o [5]
__cmain                 0x080099e5         Code  Gb  cmain.o [5]
__data_GetMemChunk      0x0800892d   0x2c  Code  Gb  xgetmemchunk.o [3]
__data_GetMemChunk::start
                        0x200009ac    0x4  Data  Lc  xgetmemchunk.o [3]
__exit                  0x08007245   0x14  Code  Gb  exit.o [6]
__iar_Fail_s            0x0800718d   0x22  Code  Gb  xfail_s.o [3]
__iar_Memset4_word      0x08002899         Code  Gb  ABImemset.o [5]
__iar_Memset_word       0x08002885         Code  Gb  ABImemset.o [5]
__iar_ceil64            0x0800277d         Code  Gb  ceil.o [4]
__iar_d2uiz             0x08002451         Code  Gb  DblToI32.o [4]
__iar_data_init3        0x0800999d   0x28  Code  Gb  data_init.o [5]
__iar_dlfree            0x08008379  0x5ac  Code  Gb  dlmalloc.o [3]
__iar_dlmalloc          0x0800807d  0x2f6  Code  Gb  dlmalloc.o [3]
__iar_floor64           0x08002809         Code  Gb  floor.o [4]
__iar_has_fraction64    0x08002631   0x80  Code  Lc  round64.o [4]
__iar_packbits_init_single3
                        0x08009931   0x3c  Code  Gb  packbits_init_single.o [5]
__iar_program_start     0x08009ab9         Code  Gb  cstartup_M.o [5]
__iar_round64           0x080026b1   0xbc  Code  Gb  round64.o [4]
__iar_systems$$module {Abs}
                        0x00000001         Data  Gb  command line/config [2]
__iar_zero_init3        0x080098f5   0x3c  Code  Gb  zero_init3.o [5]
__low_level_init        0x08009a03    0x4  Code  Gb  low_level_init.o [3]
__vector_table          0x08000000         Data  Gb  startup_stm32l072xx.o [1]
_call_main              0x080099f1         Code  Gb  cmain.o [5]
_exit                   0x08009a11         Code  Gb  cexit.o [5]
_gm_                    0x200000b4  0x1d8  Data  Lc  dlmalloc.o [3]
_main                   0x080099ff         Code  Gb  cmain.o [5]
abort                   0x08007239    0xa  Code  Gb  abort.o [3]
add_elementSize_and_inc_writeIdx
                        0x080056d7   0x3e  Code  Lc  queue.o [1]
add_segment             0x0800767b  0x1f6  Code  Lc  dlmalloc.o [3]
bands                   0x200000b2    0x1  Data  Gb  main.o [1]
button                  0x20000028    0x4  Data  Gb  main.o [1]
buttonPrev              0x2000002c    0x4  Data  Gb  main.o [1]
ceil                    0x0800277d         Code  Gb  ceil.o [4]
ceill                   0x0800277d         Code  Gb  ceil.o [4]
circular_queue_add      0x080054eb   0xe8  Code  Gb  queue.o [1]
circular_queue_get      0x080055d3   0x4a  Code  Gb  queue.o [1]
circular_queue_get_free_size
                        0x08005695   0x2a  Code  Lc  queue.o [1]
circular_queue_init     0x080054d5   0x16  Code  Gb  queue.o [1]
circular_queue_remove   0x0800561d   0x66  Code  Gb  queue.o [1]
circular_queue_sense    0x08005683   0x12  Code  Gb  queue.o [1]
debugLora               0x200009bf    0x1  Data  Gb  sx1276.o [1]
endLogging              0x200009bb    0x1  Data  Gb  main.o [1]
errorStr                0x20000020    0x8  Data  Gb  flash.o [1]
exit                    0x08009a07    0x8  Code  Gb  exit.o [3]
flashBuffSize           0x08008959    0x4  Code  Gb  flash.o [1]
flashData               0x2000048c   0x8c  Data  Gb  flash.o [1]
flashGetStr             0x08008a55  0x26c  Code  Gb  flash.o [1]
flashInit               0x0800895d   0x34  Code  Gb  flash.o [1]
flashSetAddr            0x08008a33    0xc  Code  Gb  flash.o [1]
flashSlot               0x20000018    0x4  Data  Gb  flash.o [1]
flashSlotPtr            0x2000001c    0x4  Data  Gb  flash.o [1]
flashWrite              0x08008991   0x7e  Code  Gb  flash.o [1]
flashWriteEndAddress    0x08008a0f   0x24  Code  Gb  flash.o [1]
floor                   0x08002809         Code  Gb  floor.o [4]
floorl                  0x08002809         Code  Gb  floor.o [4]
free                    0x08008fdd    0x8  Code  Gb  heaptramp0.o [3]
frequencies             0x20000030   0x14  Data  Gb  main.o [1]
hadc                    0x2000068c   0x5c  Data  Lc  mlm32l0xx_hw.o [1]
hspi                    0x200006e8   0x58  Data  Lc  hw_spi.o [1]
init_mparams            0x08007279   0x2a  Code  Lc  dlmalloc.o [3]
init_top                0x080072a3   0x38  Code  Lc  dlmalloc.o [3]
localeconv              0x08007231    0x4  Code  Gb  xlocale_c.o [3]
main                    0x08008fe5  0x296  Code  Gb  main.o [1]
memchr                  0x080071e5   0x18  Code  Gb  memchr.o [5]
memcpy1                 0x08002861   0x18  Code  Gb  utilities.o [1]
mparams                 0x20000954   0x18  Data  Lc  dlmalloc.o [3]
noError                 0x200009bc    0x1  Data  Gb  main.o [1]
pFlash                  0x200008f4   0x18  Data  Gb  stm32l0xx_hal_flash.o [1]
prepend_alloc           0x080072e9  0x392  Code  Lc  dlmalloc.o [3]
queue_copy              0x080056bf   0x18  Code  Lc  queue.o [1]
round                   0x080026b1   0xbc  Code  Gb  round64.o [4]
roundl                  0x080026b1   0xbc  Code  Gb  round64.o [4]
scale                   0x080069fb   0x48  Code  Lc  xprintffull_nomb.o [3]
sec_hand                0x200009b0    0x4  Data  Lc  xfail_s.o [3]
segment_holding         0x08007259   0x20  Code  Lc  dlmalloc.o [3]
startLogging            0x200009ba    0x1  Data  Gb  main.o [1]
strchr                  0x08007175    0x2  Code  Gb  strchr.o [5]
strlen                  0x080071d5   0x10  Code  Gb  strlen.o [5]
sys_alloc               0x08007879  0x168  Code  Lc  dlmalloc.o [3]
sys_trim                0x080079e1   0x6a  Code  Lc  dlmalloc.o [3]
tmalloc_large           0x08007a5d  0x3e0  Code  Lc  dlmalloc.o [3]
tmalloc_small           0x08007e41  0x23c  Code  Lc  dlmalloc.o [3]
uwTick                  0x20000998    0x4  Data  Gb  stm32l0xx_hal.o [1]
vcom_DMA_TX_IRQHandler  0x08005361    0xc  Code  Gb  vcom.o [1]
vcom_IRQHandler         0x0800536d    0xa  Code  Gb  vcom.o [1]
vcom_Init               0x08005305   0x42  Code  Gb  vcom.o [1]
vcom_IoInit             0x08005441   0x74  Code  Gb  vcom.o [1]
vcom_Trace              0x08005347   0x10  Code  Gb  vcom.o [1]
vsnprintf               0x08005715   0x40  Code  Gb  vsnprint.o [3]


[1] = C:\Projects\IARProj\mobiledatalogger\Projects\B-L072Z-LRWAN1\Applications\LoRa\PingPong\EWARM\mlm32l07x01\Obj
[2] = command line
[3] = dl6M_tlf.a
[4] = m6M_tl.a
[5] = rt6M_tl.a
[6] = shb_l.a

  39 156 bytes of readonly  code memory
     675 bytes of readonly  data memory
   4 032 bytes of readwrite data memory

Errors: none
Warnings: none
